{
  "_format": "hh-sol-artifact-1",
  "contractName": "Dexbitrage",
  "sourceName": "contracts/Dexbitrage.sol",
  "abi": [
    {
      "inputs": [],
      "stateMutability": "nonpayable",
      "type": "constructor"
    },
    {
      "inputs": [
        {
          "internalType": "address",
          "name": "token",
          "type": "address"
        }
      ],
      "name": "balance",
      "outputs": [
        {
          "internalType": "uint256",
          "name": "",
          "type": "uint256"
        }
      ],
      "stateMutability": "view",
      "type": "function"
    },
    {
      "inputs": [
        {
          "internalType": "uint256",
          "name": "startAmount",
          "type": "uint256"
        },
        {
          "internalType": "address[]",
          "name": "routers",
          "type": "address[]"
        },
        {
          "internalType": "address[]",
          "name": "path",
          "type": "address[]"
        }
      ],
      "name": "bitrage",
      "outputs": [
        {
          "internalType": "uint256",
          "name": "",
          "type": "uint256"
        }
      ],
      "stateMutability": "nonpayable",
      "type": "function"
    },
    {
      "inputs": [
        {
          "internalType": "contract IERC20",
          "name": "address_",
          "type": "address"
        }
      ],
      "name": "changeWETH",
      "outputs": [],
      "stateMutability": "nonpayable",
      "type": "function"
    },
    {
      "inputs": [],
      "name": "loadETH",
      "outputs": [],
      "stateMutability": "payable",
      "type": "function"
    },
    {
      "inputs": [
        {
          "internalType": "address",
          "name": "token",
          "type": "address"
        },
        {
          "internalType": "uint256",
          "name": "amount",
          "type": "uint256"
        }
      ],
      "name": "offload",
      "outputs": [],
      "stateMutability": "nonpayable",
      "type": "function"
    },
    {
      "inputs": [],
      "name": "owner",
      "outputs": [
        {
          "internalType": "address",
          "name": "",
          "type": "address"
        }
      ],
      "stateMutability": "view",
      "type": "function"
    },
    {
      "inputs": [
        {
          "internalType": "address",
          "name": "_newOwner",
          "type": "address"
        }
      ],
      "name": "transferOwnership",
      "outputs": [],
      "stateMutability": "nonpayable",
      "type": "function"
    }
  ],
  "bytecode": "0x6080604052600180546001600160a01b03191673bb4cdb9cbd36b01bd1cbaebf2de08d9173bc095c17905534801561003657600080fd5b50600080546001600160a01b031916331790556110bb806100586000396000f3fe6080604052600436106100705760003560e01c80638da5cb5b1161004e5780638da5cb5b146100d2578063e0f8e243146100fa578063e3d670d71461011a578063f2fde38b1461013a57610070565b80630a115bf314610075578063176d402f146100a85780632e54bdf5146100b2575b600080fd5b34801561008157600080fd5b50610095610090366004610ec0565b61015a565b6040519081526020015b60405180910390f35b6100b06108a0565b005b3480156100be57600080fd5b506100b06100cd366004610d9d565b61090b565b3480156100de57600080fd5b506000546040516001600160a01b03909116815260200161009f565b34801561010657600080fd5b506100b0610115366004610d81565b610b99565b34801561012657600080fd5b50610095610135366004610d81565b610bf4565b34801561014657600080fd5b506100b0610155366004610d81565b610c8a565b60003361016f6000546001600160a01b031690565b6001600160a01b03161461019e5760405162461bcd60e51b815260040161019590610f7a565b60405180910390fd5b6101a9846001610ff7565b82146101e15760405162461bcd60e51b8152602060048201526007602482015266044423a204952560cc1b6044820152606401610195565b82826101ee60018261100f565b81811061020b57634e487b7160e01b600052603260045260246000fd5b90506020020160208101906102209190610d81565b6001600160a01b03168383600081811061024a57634e487b7160e01b600052603260045260246000fd5b905060200201602081019061025f9190610d81565b6001600160a01b03161461029e5760405162461bcd60e51b8152602060048201526006602482015265044423a2049560d41b6044820152606401610195565b856102df576102dc838360008181106102c757634e487b7160e01b600052603260045260246000fd5b90506020020160208101906101359190610d81565b95505b600086116103195760405162461bcd60e51b815260206004820152600760248201526644423a2049534160c81b6044820152606401610195565b600061033f848460008181106102c757634e487b7160e01b600052603260045260246000fd5b905060008484600081811061036457634e487b7160e01b600052603260045260246000fd5b90506020020160208101906103799190610d81565b905060008585600081811061039e57634e487b7160e01b600052603260045260246000fd5b90506020020160208101906103b39190610d81565b9050600089815b8981101561080c5760408051600280825260608201835260009260208301908036833701905050905089898381811061040357634e487b7160e01b600052603260045260246000fd5b90506020020160208101906104189190610d81565b8160008151811061043957634e487b7160e01b600052603260045260246000fd5b6001600160a01b0390921660209283029190910190910152898961045e846001610ff7565b81811061047b57634e487b7160e01b600052603260045260246000fd5b90506020020160208101906104909190610d81565b816001815181106104b157634e487b7160e01b600052603260045260246000fd5b60200260200101906001600160a01b031690816001600160a01b03168152505060008c8c848181106104f357634e487b7160e01b600052603260045260246000fd5b90506020020160208101906105089190610d81565b6001600160a01b031663d06ca61f85846040518363ffffffff1660e01b8152600401610535929190610f9a565b60006040518083038186803b15801561054d57600080fd5b505afa158015610561573d6000803e3d6000fd5b505050506040513d6000823e601f3d908101601f191682016040526105899190810190610dc8565b905060006105c96001836001815181106105b357634e487b7160e01b600052603260045260246000fd5b6020026020010151610d2490919063ffffffff16565b90508b8b858181106105eb57634e487b7160e01b600052603260045260246000fd5b90506020020160208101906106009190610d81565b6001600160a01b031663095ea7b38f8f8781811061062e57634e487b7160e01b600052603260045260246000fd5b90506020020160208101906106439190610d81565b6040516001600160e01b031960e084901b1681526001600160a01b03909116600482015260248101889052604401602060405180830381600087803b15801561068b57600080fd5b505af115801561069f573d6000803e3d6000fd5b505050506040513d601f19601f820116820180604052508101906106c39190610e88565b5060008e8e868181106106e657634e487b7160e01b600052603260045260246000fd5b90506020020160208101906106fb9190610d81565b6001600160a01b03166338ed1739878487306107194261012c610ff7565b6040518663ffffffff1660e01b8152600401610739959493929190610fbb565b600060405180830381600087803b15801561075357600080fd5b505af1158015610767573d6000803e3d6000fd5b505050506040513d6000823e601f3d908101601f1916820160405261078f9190810190610dc8565b9050806001815181106107b257634e487b7160e01b600052603260045260246000fd5b60200260200101519550600086116107f55760405162461bcd60e51b815260206004820152600660248201526522211d10212360d11b6044820152606401610195565b50505050808061080490611026565b9150506103ba565b508a81116108465760405162461bcd60e51b815260206004820152600760248201526644423a204e423160c81b6044820152606401610195565b61084f84610bf4565b85106108875760405162461bcd60e51b815260206004820152600760248201526622211d1027211960c91b6044820152606401610195565b610891818c610d24565b9b9a5050505050505050505050565b600160009054906101000a90046001600160a01b03166001600160a01b031663d0e30db0346040518263ffffffff1660e01b81526004016000604051808303818588803b1580156108f057600080fd5b505af1158015610904573d6000803e3d6000fd5b5050505050565b3361091e6000546001600160a01b031690565b6001600160a01b0316146109445760405162461bcd60e51b815260040161019590610f7a565b6001600160a01b038216610a2057600061095e6000610bf4565b11801561097457506109706000610bf4565b8111155b6109ab5760405162461bcd60e51b815260206004820152600860248201526744423a205749414560c01b6044820152606401610195565b806109ec57336108fc6109be6000610bf4565b6040518115909202916000818181858888f193505050501580156109e6573d6000803e3d6000fd5b50610a1b565b604051339082156108fc029083906000818181858888f19350505050158015610a19573d6000803e3d6000fd5b505b610b95565b6000610a2b83610bf4565b118015610a405750610a3c82610bf4565b8111155b610a775760405162461bcd60e51b815260206004820152600860248201526711108e8815d2505560c21b6044820152606401610195565b80610b1357816001600160a01b031663a9059cbb33610a9585610bf4565b6040516001600160e01b031960e085901b1681526001600160a01b0390921660048301526024820152604401602060405180830381600087803b158015610adb57600080fd5b505af1158015610aef573d6000803e3d6000fd5b505050506040513d601f19601f82011682018060405250810190610a199190610e88565b60405163a9059cbb60e01b8152336004820152602481018290526001600160a01b0383169063a9059cbb90604401602060405180830381600087803b158015610b5b57600080fd5b505af1158015610b6f573d6000803e3d6000fd5b505050506040513d601f19601f82011682018060405250810190610b939190610e88565b505b5050565b33610bac6000546001600160a01b031690565b6001600160a01b031614610bd25760405162461bcd60e51b815260040161019590610f7a565b600180546001600160a01b0319166001600160a01b0392909216919091179055565b60006001600160a01b038216610c0b575047610c85565b6040516370a0823160e01b81523060048201526001600160a01b038316906370a082319060240160206040518083038186803b158015610c4a57600080fd5b505afa158015610c5e573d6000803e3d6000fd5b505050506040513d601f19601f82011682018060405250810190610c829190610ea8565b90505b919050565b33610c9d6000546001600160a01b031690565b6001600160a01b031614610cc35760405162461bcd60e51b815260040161019590610f7a565b6001600160a01b038116610d025760405162461bcd60e51b815260206004820152600660248201526544423a20494f60d01b6044820152606401610195565b600080546001600160a01b0319166001600160a01b0392909216919091179055565b6000610d30828461100f565b9392505050565b60008083601f840112610d48578081fd5b50813567ffffffffffffffff811115610d5f578182fd5b6020830191508360208260051b8501011115610d7a57600080fd5b9250929050565b600060208284031215610d92578081fd5b8135610d308161106d565b60008060408385031215610daf578081fd5b8235610dba8161106d565b946020939093013593505050565b60006020808385031215610dda578182fd5b825167ffffffffffffffff80821115610df1578384fd5b818501915085601f830112610e04578384fd5b815181811115610e1657610e16611057565b8060051b604051601f19603f83011681018181108582111715610e3b57610e3b611057565b604052828152858101935084860182860187018a1015610e59578788fd5b8795505b83861015610e7b578051855260019590950194938601938601610e5d565b5098975050505050505050565b600060208284031215610e99578081fd5b81518015158114610d30578182fd5b600060208284031215610eb9578081fd5b5051919050565b600080600080600060608688031215610ed7578081fd5b85359450602086013567ffffffffffffffff80821115610ef5578283fd5b610f0189838a01610d37565b90965094506040880135915080821115610f19578283fd5b50610f2688828901610d37565b969995985093965092949392505050565b6000815180845260208085019450808401835b83811015610f6f5781516001600160a01b031687529582019590820190600101610f4a565b509495945050505050565b60208082526006908201526544423a204f4f60d01b604082015260600190565b600083825260406020830152610fb36040830184610f37565b949350505050565b600086825285602083015260a06040830152610fda60a0830186610f37565b6001600160a01b0394909416606083015250608001529392505050565b6000821982111561100a5761100a611041565b500190565b60008282101561102157611021611041565b500390565b600060001982141561103a5761103a611041565b5060010190565b634e487b7160e01b600052601160045260246000fd5b634e487b7160e01b600052604160045260246000fd5b6001600160a01b038116811461108257600080fd5b5056fea2646970667358221220beab9921ef47b0c9c2acf294a804c262d1e66acf17581e250ecdd98ba549f53c64736f6c63430008030033",
  "linkReferences": {},
  "deployedLinkReferences": {}
}