{
  "_format": "hh-sol-artifact-1",
  "contractName": "Dexbitrage",
  "sourceName": "contracts/Dexbitrage.sol",
  "abi": [
    {
      "inputs": [],
      "stateMutability": "nonpayable",
      "type": "constructor"
    },
    {
      "inputs": [
        {
          "internalType": "address",
          "name": "token",
          "type": "address"
        }
      ],
      "name": "balance",
      "outputs": [
        {
          "internalType": "uint256",
          "name": "",
          "type": "uint256"
        }
      ],
      "stateMutability": "view",
      "type": "function"
    },
    {
      "inputs": [
        {
          "internalType": "uint256",
          "name": "startAmount",
          "type": "uint256"
        },
        {
          "internalType": "address[]",
          "name": "routers",
          "type": "address[]"
        },
        {
          "internalType": "address[]",
          "name": "path",
          "type": "address[]"
        }
      ],
      "name": "bitrage",
      "outputs": [
        {
          "internalType": "uint256",
          "name": "",
          "type": "uint256"
        }
      ],
      "stateMutability": "nonpayable",
      "type": "function"
    },
    {
      "inputs": [
        {
          "internalType": "contract IERC20",
          "name": "address_",
          "type": "address"
        }
      ],
      "name": "changeWETH",
      "outputs": [],
      "stateMutability": "nonpayable",
      "type": "function"
    },
    {
      "inputs": [],
      "name": "loadETH",
      "outputs": [],
      "stateMutability": "payable",
      "type": "function"
    },
    {
      "inputs": [
        {
          "internalType": "address",
          "name": "token",
          "type": "address"
        },
        {
          "internalType": "uint256",
          "name": "amount",
          "type": "uint256"
        }
      ],
      "name": "offload",
      "outputs": [],
      "stateMutability": "nonpayable",
      "type": "function"
    },
    {
      "inputs": [],
      "name": "owner",
      "outputs": [
        {
          "internalType": "address",
          "name": "",
          "type": "address"
        }
      ],
      "stateMutability": "view",
      "type": "function"
    },
    {
      "inputs": [
        {
          "internalType": "address",
          "name": "_newOwner",
          "type": "address"
        }
      ],
      "name": "transferOwnership",
      "outputs": [],
      "stateMutability": "nonpayable",
      "type": "function"
    }
  ],
  "bytecode": "0x6080604052600180546001600160a01b03191673bb4cdb9cbd36b01bd1cbaebf2de08d9173bc095c17905534801561003657600080fd5b50600080546001600160a01b03191633179055610f95806100586000396000f3fe6080604052600436106100705760003560e01c80638da5cb5b1161004e5780638da5cb5b146100d2578063e0f8e243146100fa578063e3d670d71461011a578063f2fde38b1461013a57610070565b80630a115bf314610075578063176d402f146100a85780632e54bdf5146100b2575b600080fd5b34801561008157600080fd5b50610095610090366004610d9a565b61015a565b6040519081526020015b60405180910390f35b6100b061077a565b005b3480156100be57600080fd5b506100b06100cd366004610c77565b6107e5565b3480156100de57600080fd5b506000546040516001600160a01b03909116815260200161009f565b34801561010657600080fd5b506100b0610115366004610c5b565b610a73565b34801561012657600080fd5b50610095610135366004610c5b565b610ace565b34801561014657600080fd5b506100b0610155366004610c5b565b610b64565b60003361016f6000546001600160a01b031690565b6001600160a01b03161461019e5760405162461bcd60e51b815260040161019590610e54565b60405180910390fd5b6101a9846001610ed1565b82146101e15760405162461bcd60e51b8152602060048201526007602482015266044423a204952560cc1b6044820152606401610195565b82826101ee600182610ee9565b81811061020b57634e487b7160e01b600052603260045260246000fd5b90506020020160208101906102209190610c5b565b6001600160a01b03168383600081811061024a57634e487b7160e01b600052603260045260246000fd5b905060200201602081019061025f9190610c5b565b6001600160a01b03161461029e5760405162461bcd60e51b8152602060048201526006602482015265044423a2049560d41b6044820152606401610195565b856102df576102dc838360008181106102c757634e487b7160e01b600052603260045260246000fd5b90506020020160208101906101359190610c5b565b95505b600086116103195760405162461bcd60e51b815260206004820152600760248201526644423a2049534160c81b6044820152606401610195565b8560005b8581101561076f5760408051600280825260608201835260009260208301908036833701905050905085858381811061036657634e487b7160e01b600052603260045260246000fd5b905060200201602081019061037b9190610c5b565b8160008151811061039c57634e487b7160e01b600052603260045260246000fd5b6001600160a01b039092166020928302919091019091015285856103c1846001610ed1565b8181106103de57634e487b7160e01b600052603260045260246000fd5b90506020020160208101906103f39190610c5b565b8160018151811061041457634e487b7160e01b600052603260045260246000fd5b60200260200101906001600160a01b031690816001600160a01b031681525050600088888481811061045657634e487b7160e01b600052603260045260246000fd5b905060200201602081019061046b9190610c5b565b6001600160a01b031663d06ca61f85846040518363ffffffff1660e01b8152600401610498929190610e74565b60006040518083038186803b1580156104b057600080fd5b505afa1580156104c4573d6000803e3d6000fd5b505050506040513d6000823e601f3d908101601f191682016040526104ec9190810190610ca2565b9050600061052c60018360018151811061051657634e487b7160e01b600052603260045260246000fd5b6020026020010151610bfe90919063ffffffff16565b905087878581811061054e57634e487b7160e01b600052603260045260246000fd5b90506020020160208101906105639190610c5b565b6001600160a01b031663095ea7b38b8b8781811061059157634e487b7160e01b600052603260045260246000fd5b90506020020160208101906105a69190610c5b565b6040516001600160e01b031960e084901b1681526001600160a01b03909116600482015260248101889052604401602060405180830381600087803b1580156105ee57600080fd5b505af1158015610602573d6000803e3d6000fd5b505050506040513d601f19601f820116820180604052508101906106269190610d62565b5060008a8a8681811061064957634e487b7160e01b600052603260045260246000fd5b905060200201602081019061065e9190610c5b565b6001600160a01b03166338ed17398784873061067c4261012c610ed1565b6040518663ffffffff1660e01b815260040161069c959493929190610e95565b600060405180830381600087803b1580156106b657600080fd5b505af11580156106ca573d6000803e3d6000fd5b505050506040513d6000823e601f3d908101601f191682016040526106f29190810190610ca2565b90508060018151811061071557634e487b7160e01b600052603260045260246000fd5b60200260200101519550600086116107585760405162461bcd60e51b815260206004820152600660248201526522211d10212360d11b6044820152606401610195565b50505050808061076790610f00565b91505061031d565b509695505050505050565b600160009054906101000a90046001600160a01b03166001600160a01b031663d0e30db0346040518263ffffffff1660e01b81526004016000604051808303818588803b1580156107ca57600080fd5b505af11580156107de573d6000803e3d6000fd5b5050505050565b336107f86000546001600160a01b031690565b6001600160a01b03161461081e5760405162461bcd60e51b815260040161019590610e54565b6001600160a01b0382166108fa5760006108386000610ace565b11801561084e575061084a6000610ace565b8111155b6108855760405162461bcd60e51b815260206004820152600860248201526744423a205749414560c01b6044820152606401610195565b806108c657336108fc6108986000610ace565b6040518115909202916000818181858888f193505050501580156108c0573d6000803e3d6000fd5b506108f5565b604051339082156108fc029083906000818181858888f193505050501580156108f3573d6000803e3d6000fd5b505b610a6f565b600061090583610ace565b11801561091a575061091682610ace565b8111155b6109515760405162461bcd60e51b815260206004820152600860248201526711108e8815d2505560c21b6044820152606401610195565b806109ed57816001600160a01b031663a9059cbb3361096f85610ace565b6040516001600160e01b031960e085901b1681526001600160a01b0390921660048301526024820152604401602060405180830381600087803b1580156109b557600080fd5b505af11580156109c9573d6000803e3d6000fd5b505050506040513d601f19601f820116820180604052508101906108f39190610d62565b60405163a9059cbb60e01b8152336004820152602481018290526001600160a01b0383169063a9059cbb90604401602060405180830381600087803b158015610a3557600080fd5b505af1158015610a49573d6000803e3d6000fd5b505050506040513d601f19601f82011682018060405250810190610a6d9190610d62565b505b5050565b33610a866000546001600160a01b031690565b6001600160a01b031614610aac5760405162461bcd60e51b815260040161019590610e54565b600180546001600160a01b0319166001600160a01b0392909216919091179055565b60006001600160a01b038216610ae5575047610b5f565b6040516370a0823160e01b81523060048201526001600160a01b038316906370a082319060240160206040518083038186803b158015610b2457600080fd5b505afa158015610b38573d6000803e3d6000fd5b505050506040513d601f19601f82011682018060405250810190610b5c9190610d82565b90505b919050565b33610b776000546001600160a01b031690565b6001600160a01b031614610b9d5760405162461bcd60e51b815260040161019590610e54565b6001600160a01b038116610bdc5760405162461bcd60e51b815260206004820152600660248201526544423a20494f60d01b6044820152606401610195565b600080546001600160a01b0319166001600160a01b0392909216919091179055565b6000610c0a8284610ee9565b9392505050565b60008083601f840112610c22578081fd5b50813567ffffffffffffffff811115610c39578182fd5b6020830191508360208260051b8501011115610c5457600080fd5b9250929050565b600060208284031215610c6c578081fd5b8135610c0a81610f47565b60008060408385031215610c89578081fd5b8235610c9481610f47565b946020939093013593505050565b60006020808385031215610cb4578182fd5b825167ffffffffffffffff80821115610ccb578384fd5b818501915085601f830112610cde578384fd5b815181811115610cf057610cf0610f31565b8060051b604051601f19603f83011681018181108582111715610d1557610d15610f31565b604052828152858101935084860182860187018a1015610d33578788fd5b8795505b83861015610d55578051855260019590950194938601938601610d37565b5098975050505050505050565b600060208284031215610d73578081fd5b81518015158114610c0a578182fd5b600060208284031215610d93578081fd5b5051919050565b600080600080600060608688031215610db1578081fd5b85359450602086013567ffffffffffffffff80821115610dcf578283fd5b610ddb89838a01610c11565b90965094506040880135915080821115610df3578283fd5b50610e0088828901610c11565b969995985093965092949392505050565b6000815180845260208085019450808401835b83811015610e495781516001600160a01b031687529582019590820190600101610e24565b509495945050505050565b60208082526006908201526544423a204f4f60d01b604082015260600190565b600083825260406020830152610e8d6040830184610e11565b949350505050565b600086825285602083015260a06040830152610eb460a0830186610e11565b6001600160a01b0394909416606083015250608001529392505050565b60008219821115610ee457610ee4610f1b565b500190565b600082821015610efb57610efb610f1b565b500390565b6000600019821415610f1457610f14610f1b565b5060010190565b634e487b7160e01b600052601160045260246000fd5b634e487b7160e01b600052604160045260246000fd5b6001600160a01b0381168114610f5c57600080fd5b5056fea2646970667358221220873c2cfc72a8f8abae05d77463fb5655391e407901ebc010c86246781aebf66964736f6c63430008030033",
  "linkReferences": {},
  "deployedLinkReferences": {}
}